{
  "contractName": "Casino",
  "abi": [
    {
      "constant": true,
      "inputs": [],
      "name": "numberOfBets",
      "outputs": [
        {
          "name": "",
          "type": "uint256"
        }
      ],
      "payable": false,
      "stateMutability": "view",
      "type": "function"
    },
    {
      "constant": true,
      "inputs": [
        {
          "name": "",
          "type": "address"
        }
      ],
      "name": "playerInfo",
      "outputs": [
        {
          "name": "amountBet",
          "type": "uint256"
        },
        {
          "name": "numberSelected",
          "type": "uint256"
        }
      ],
      "payable": false,
      "stateMutability": "view",
      "type": "function"
    },
    {
      "constant": true,
      "inputs": [],
      "name": "owner",
      "outputs": [
        {
          "name": "",
          "type": "address"
        }
      ],
      "payable": false,
      "stateMutability": "view",
      "type": "function"
    },
    {
      "constant": true,
      "inputs": [],
      "name": "minimumBet",
      "outputs": [
        {
          "name": "",
          "type": "uint256"
        }
      ],
      "payable": false,
      "stateMutability": "view",
      "type": "function"
    },
    {
      "constant": true,
      "inputs": [],
      "name": "maximumBetsNr",
      "outputs": [
        {
          "name": "",
          "type": "uint256"
        }
      ],
      "payable": false,
      "stateMutability": "view",
      "type": "function"
    },
    {
      "constant": true,
      "inputs": [
        {
          "name": "",
          "type": "uint256"
        }
      ],
      "name": "players",
      "outputs": [
        {
          "name": "",
          "type": "address"
        }
      ],
      "payable": false,
      "stateMutability": "view",
      "type": "function"
    },
    {
      "constant": true,
      "inputs": [],
      "name": "totalBet",
      "outputs": [
        {
          "name": "",
          "type": "uint256"
        }
      ],
      "payable": false,
      "stateMutability": "view",
      "type": "function"
    },
    {
      "inputs": [
        {
          "name": "_minimumBet",
          "type": "uint256"
        }
      ],
      "payable": true,
      "stateMutability": "payable",
      "type": "constructor"
    },
    {
      "payable": true,
      "stateMutability": "payable",
      "type": "fallback"
    },
    {
      "constant": false,
      "inputs": [],
      "name": "kill",
      "outputs": [],
      "payable": false,
      "stateMutability": "nonpayable",
      "type": "function"
    },
    {
      "constant": true,
      "inputs": [
        {
          "name": "player",
          "type": "address"
        }
      ],
      "name": "checkPlayerExists",
      "outputs": [
        {
          "name": "",
          "type": "bool"
        }
      ],
      "payable": false,
      "stateMutability": "view",
      "type": "function"
    },
    {
      "constant": false,
      "inputs": [
        {
          "name": "numberSelected",
          "type": "uint256"
        }
      ],
      "name": "bet",
      "outputs": [],
      "payable": true,
      "stateMutability": "payable",
      "type": "function"
    },
    {
      "constant": false,
      "inputs": [],
      "name": "generateNumberWinner",
      "outputs": [],
      "payable": false,
      "stateMutability": "nonpayable",
      "type": "function"
    },
    {
      "constant": false,
      "inputs": [
        {
          "name": "numberWinner",
          "type": "uint256"
        }
      ],
      "name": "distributePrizes",
      "outputs": [],
      "payable": false,
      "stateMutability": "nonpayable",
      "type": "function"
    },
    {
      "constant": false,
      "inputs": [],
      "name": "resetData",
      "outputs": [],
      "payable": false,
      "stateMutability": "nonpayable",
      "type": "function"
    }
  ],
  "bytecode": "0x60806040526064600455604051602080610a7f83398101806040528101908080519060200190929190505050336000806101000a81548173ffffffffffffffffffffffffffffffffffffffff021916908373ffffffffffffffffffffffffffffffffffffffff16021790555060008114151561007d57806001819055505b506109f28061008d6000396000f3006080604052600436106100c5576000357c0100000000000000000000000000000000000000000000000000000000900463ffffffff1680630a50e361146100c75780632ca8c6d3146100de5780634081d9161461010957806341c0e1b514610164578063478c4e0e1461017b5780634b114691146101925780636ca3fc3b146101f05780637365870b1461021d5780638da5cb5b1461023d578063c38a8afd14610294578063dd4f28ff146102bf578063f71d96cb146102ea578063fe5e185314610357575b005b3480156100d357600080fd5b506100dc610382565b005b3480156100ea57600080fd5b506100f36103a2565b6040518082815260200191505060405180910390f35b34801561011557600080fd5b5061014a600480360381019080803573ffffffffffffffffffffffffffffffffffffffff1690602001909291905050506103a8565b604051808215151515815260200191505060405180910390f35b34801561017057600080fd5b5061017961044b565b005b34801561018757600080fd5b506101906104dc565b005b34801561019e57600080fd5b506101d3600480360381019080803573ffffffffffffffffffffffffffffffffffffffff1690602001909291905050506104fe565b604051808381526020018281526020019250505060405180910390f35b3480156101fc57600080fd5b5061021b60048036038101908080359060200190929190505050610522565b005b61023b6004803603810190808035906020019092919050505061076a565b005b34801561024957600080fd5b506102526108dc565b604051808273ffffffffffffffffffffffffffffffffffffffff1673ffffffffffffffffffffffffffffffffffffffff16815260200191505060405180910390f35b3480156102a057600080fd5b506102a9610901565b6040518082815260200191505060405180910390f35b3480156102cb57600080fd5b506102d4610907565b6040518082815260200191505060405180910390f35b3480156102f657600080fd5b506103156004803603810190808035906020019092919050505061090d565b604051808273ffffffffffffffffffffffffffffffffffffffff1673ffffffffffffffffffffffffffffffffffffffff16815260200191505060405180910390f35b34801561036357600080fd5b5061036c61094b565b6040518082815260200191505060405180910390f35b60006001600a4381151561039257fe5b0601905061039f81610522565b50565b60035481565b600080600090505b600580549050811015610440578273ffffffffffffffffffffffffffffffffffffffff166005828154811015156103e357fe5b9060005260206000200160009054906101000a900473ffffffffffffffffffffffffffffffffffffffff1673ffffffffffffffffffffffffffffffffffffffff1614156104335760019150610445565b80806001019150506103b0565b600091505b50919050565b6000809054906101000a900473ffffffffffffffffffffffffffffffffffffffff1673ffffffffffffffffffffffffffffffffffffffff163373ffffffffffffffffffffffffffffffffffffffff1614156104da576000809054906101000a900473ffffffffffffffffffffffffffffffffffffffff1673ffffffffffffffffffffffffffffffffffffffff16ff5b565b60006005816104eb9190610951565b5060006002819055506000600381905550565b60066020528060005260406000206000915090508060000154908060010154905082565b61052a61097d565b6000806000806000809450600093505b60058054905084101561067b5760058481548110151561055657fe5b9060005260206000200160009054906101000a900473ffffffffffffffffffffffffffffffffffffffff16925086600660008573ffffffffffffffffffffffffffffffffffffffff1673ffffffffffffffffffffffffffffffffffffffff16815260200190815260200160002060010154141561061c578286866064811015156105dc57fe5b602002019073ffffffffffffffffffffffffffffffffffffffff16908173ffffffffffffffffffffffffffffffffffffffff168152505084806001019550505b600660008473ffffffffffffffffffffffffffffffffffffffff1673ffffffffffffffffffffffffffffffffffffffff16815260200190815260200160002060008082016000905560018201600090555050838060010194505061053a565b600060058161068a9190610951565b50606460025481151561069957fe5b049150600090505b606481101561075957600073ffffffffffffffffffffffffffffffffffffffff1686826064811015156106d057fe5b602002015173ffffffffffffffffffffffffffffffffffffffff1614151561074c57858160648110151561070057fe5b602002015173ffffffffffffffffffffffffffffffffffffffff166108fc839081150290604051600060405180830381858888f1935050505015801561074a573d6000803e3d6000fd5b505b80806001019150506106a1565b6107616104dc565b50505050505050565b610773336103a8565b15151561077f57600080fd5b600a8111158015610791575060018110155b151561079c57600080fd5b60015434101515156107ad57600080fd5b34600660003373ffffffffffffffffffffffffffffffffffffffff1673ffffffffffffffffffffffffffffffffffffffff1681526020019081526020016000206000018190555080600660003373ffffffffffffffffffffffffffffffffffffffff1673ffffffffffffffffffffffffffffffffffffffff1681526020019081526020016000206001018190555060036000815480929190600101919050555060053390806001815401808255809150509060018203906000526020600020016000909192909190916101000a81548173ffffffffffffffffffffffffffffffffffffffff021916908373ffffffffffffffffffffffffffffffffffffffff16021790555050346002600082825401925050819055506004546003541015156108d9576108d8610382565b5b50565b6000809054906101000a900473ffffffffffffffffffffffffffffffffffffffff1681565b60015481565b60045481565b60058181548110151561091c57fe5b906000526020600020016000915054906101000a900473ffffffffffffffffffffffffffffffffffffffff1681565b60025481565b8154818355818111156109785781836000526020600020918201910161097791906109a1565b5b505050565b610c8060405190810160405280606490602082028038833980820191505090505090565b6109c391905b808211156109bf5760008160009055506001016109a7565b5090565b905600a165627a7a723058202fadfcd901553e90c69823b4838e785f0218e3e448da3e2ea0cb2c07019345b00029",
  "source": "pragma solidity ^0.4.23;\n\ncontract Casino {\n  address public owner;\n  uint256 public minimumBet;\n  uint256 public totalBet;\n  uint256 public numberOfBets;\n  uint256 public maximumBetsNr = 100;\n  address[] public players;\n\n  struct Player {\n    uint256 amountBet;\n    uint256 numberSelected;\n  }\n\n  // The address of the player and => the user info\n  mapping(address => Player) public playerInfo;\n\n  constructor(uint256 _minimumBet) public payable {\n    owner = msg.sender;\n    if (_minimumBet != 0) \n      minimumBet = _minimumBet;\n  }\n\n  function() public payable {}\n\n  function kill() public {\n    if (msg.sender == owner) \n      selfdestruct(owner);\n  }\n\n  function checkPlayerExists(address player) public constant returns(bool) {\n    for (uint256 i = 0; i < players.length; i++) {\n      if (players[i] == player) \n        return true;\n    }\n    return false;\n  }\n\n  // To bet for a number between 1 and 10 both inclusive\n  function bet(uint256 numberSelected) public payable {\n    require(!checkPlayerExists(msg.sender));\n    require(numberSelected <= 10 && numberSelected >= 1);\n    require(msg.value >= minimumBet);\n    playerInfo[msg.sender].amountBet = msg.value;\n    playerInfo[msg.sender].numberSelected = numberSelected;\n    numberOfBets++;\n    players.push(msg.sender);\n    totalBet += msg.value;\n    if (numberOfBets >= maximumBetsNr) \n      generateNumberWinner();\n    //We need to change this in order to be secure\n  }\n\n  // Generates a number between 1 and 10 that will be the winner\n  function generateNumberWinner() public {\n    uint256 numberGenerated = block.number % 10 + 1;\n\n    distributePrizes(numberGenerated);\n  }\n\n  // Sends the corresponding ether to each winner depending on the total bets\n  function distributePrizes(uint256 numberWinner) public {\n    address[100] memory winners;\n    uint256 count = 0;\n    for (uint256 i = 0; i < players.length; i++) {\n      address playerAddress = players[i];\n      if (playerInfo[playerAddress].numberSelected == numberWinner) {\n        winners[count] = playerAddress;\n        count++;\n      }\n      delete playerInfo[playerAddress];\n    }\n\n    players.length = 0;\n    uint256 winnerEtherAmount = totalBet/winners.length;\n\n    for (uint256 j = 0; j < winners.length; j++){\n      if (winners[j] != address(0)) \n        winners[j].transfer(winnerEtherAmount);\n    }\n\n    resetData();\n  }\n\n  function resetData() public {\n    players.length = 0;\n    totalBet = 0;\n    numberOfBets = 0;\n  }\n\n}\n",
  "sourcePath": "/Users/levanhuan/lab/ethereum/huan-casino/contracts/HuanCasino.sol",
  "compiler": {
    "name": "solc",
    "version": "0.4.23+commit.124ca40d.Emscripten.clang"
  },
  "schemaVersion": "2.0.0",
  "updatedAt": "2018-10-12T05:52:26.831Z"
}