{
  "contractName": "HuanCasino",
  "abi": [
    {
      "constant": true,
      "inputs": [],
      "name": "LIMIT_AMOUNT_BETS",
      "outputs": [
        {
          "name": "",
          "type": "uint256"
        }
      ],
      "payable": false,
      "stateMutability": "view",
      "type": "function"
    },
    {
      "constant": true,
      "inputs": [],
      "name": "numberOfBets",
      "outputs": [
        {
          "name": "",
          "type": "uint256"
        }
      ],
      "payable": false,
      "stateMutability": "view",
      "type": "function"
    },
    {
      "constant": true,
      "inputs": [],
      "name": "numberWinner",
      "outputs": [
        {
          "name": "",
          "type": "uint256"
        }
      ],
      "payable": false,
      "stateMutability": "view",
      "type": "function"
    },
    {
      "constant": true,
      "inputs": [],
      "name": "minimumBet",
      "outputs": [
        {
          "name": "",
          "type": "uint256"
        }
      ],
      "payable": false,
      "stateMutability": "view",
      "type": "function"
    },
    {
      "constant": true,
      "inputs": [],
      "name": "maxAmountOfBets",
      "outputs": [
        {
          "name": "",
          "type": "uint256"
        }
      ],
      "payable": false,
      "stateMutability": "view",
      "type": "function"
    },
    {
      "constant": true,
      "inputs": [
        {
          "name": "",
          "type": "uint256"
        }
      ],
      "name": "players",
      "outputs": [
        {
          "name": "",
          "type": "address"
        }
      ],
      "payable": false,
      "stateMutability": "view",
      "type": "function"
    },
    {
      "constant": true,
      "inputs": [],
      "name": "totalBet",
      "outputs": [
        {
          "name": "",
          "type": "uint256"
        }
      ],
      "payable": false,
      "stateMutability": "view",
      "type": "function"
    },
    {
      "inputs": [
        {
          "name": "_minimumBet",
          "type": "uint256"
        },
        {
          "name": "_maxAmountOfBets",
          "type": "uint256"
        }
      ],
      "payable": true,
      "stateMutability": "payable",
      "type": "constructor"
    },
    {
      "payable": true,
      "stateMutability": "payable",
      "type": "fallback"
    },
    {
      "anonymous": false,
      "inputs": [
        {
          "indexed": false,
          "name": "_status",
          "type": "bool"
        },
        {
          "indexed": false,
          "name": "_address",
          "type": "address[]"
        },
        {
          "indexed": false,
          "name": "_amount",
          "type": "uint256"
        }
      ],
      "name": "Won",
      "type": "event"
    },
    {
      "constant": true,
      "inputs": [
        {
          "name": "player",
          "type": "address"
        }
      ],
      "name": "checkPlayerExists",
      "outputs": [
        {
          "name": "",
          "type": "bool"
        }
      ],
      "payable": false,
      "stateMutability": "view",
      "type": "function"
    },
    {
      "constant": false,
      "inputs": [
        {
          "name": "numberToBet",
          "type": "uint256"
        }
      ],
      "name": "bet",
      "outputs": [],
      "payable": true,
      "stateMutability": "payable",
      "type": "function"
    },
    {
      "constant": false,
      "inputs": [],
      "name": "generateNumberWinner",
      "outputs": [],
      "payable": false,
      "stateMutability": "nonpayable",
      "type": "function"
    },
    {
      "constant": false,
      "inputs": [],
      "name": "distributePrizes",
      "outputs": [],
      "payable": false,
      "stateMutability": "nonpayable",
      "type": "function"
    }
  ],
  "bytecode": "0x608060405267016345785d8a0000600155600a6004556040516040806108298339810180604052810190808051906020019092919080519060200190929190505050336000806101000a81548173ffffffffffffffffffffffffffffffffffffffff021916908373ffffffffffffffffffffffffffffffffffffffff160217905550600082111561009257816001819055505b6000811180156100a35750600a8111155b156100b057806004819055505b5050610768806100c16000396000f3006080604052600436106100af576000357c0100000000000000000000000000000000000000000000000000000000900463ffffffff1680630a50e361146100b15780631900874b146100c85780632ca8c6d3146100f35780634081d9161461011e5780637365870b146101795780637ce52eb6146101995780639a6a68e9146101b0578063c38a8afd146101db578063e08a96cd14610206578063f71d96cb14610231578063fe5e18531461029e575b005b3480156100bd57600080fd5b506100c66102c9565b005b3480156100d457600080fd5b506100dd6102e9565b6040518082815260200191505060405180910390f35b3480156100ff57600080fd5b506101086102ee565b6040518082815260200191505060405180910390f35b34801561012a57600080fd5b5061015f600480360381019080803573ffffffffffffffffffffffffffffffffffffffff1690602001909291905050506102f4565b604051808215151515815260200191505060405180910390f35b61019760048036038101908080359060200190929190505050610350565b005b3480156101a557600080fd5b506101ae61047c565b005b3480156101bc57600080fd5b506101c56106a0565b6040518082815260200191505060405180910390f35b3480156101e757600080fd5b506101f06106a6565b6040518082815260200191505060405180910390f35b34801561021257600080fd5b5061021b6106ac565b6040518082815260200191505060405180910390f35b34801561023d57600080fd5b5061025c600480360381019080803590602001909291905050506106b2565b604051808273ffffffffffffffffffffffffffffffffffffffff1673ffffffffffffffffffffffffffffffffffffffff16815260200191505060405180910390f35b3480156102aa57600080fd5b506102b36106f0565b6040518082815260200191505060405180910390f35b6001600a438115156102d757fe5b06016005819055506102e761047c565b565b600a81565b60035481565b600080600860008473ffffffffffffffffffffffffffffffffffffffff1673ffffffffffffffffffffffffffffffffffffffff168152602001908152602001600020541115610346576001905061034b565b600090505b919050565b60045460035410151561035f57fe5b600181101580156103715750600a8111155b151561037957fe5b600154341015151561038757fe5b80600860003373ffffffffffffffffffffffffffffffffffffffff1673ffffffffffffffffffffffffffffffffffffffff16815260200190815260200160002081905550600760008281526020019081526020016000203390806001815401808255809150509060018203906000526020600020016000909192909190916101000a81548173ffffffffffffffffffffffffffffffffffffffff021916908373ffffffffffffffffffffffffffffffffffffffff16021790555050600160036000828254019250508190555034600260008282540192505081905550600454600354101515610479576104786102c9565b5b50565b600080600060045460035410151561069b57600760006005548152602001908152602001600020805490506002548115156104b357fe5b049250600091505b6007600060055481526020019081526020016000208054905082101561064f57600760006005548152602001908152602001600020828154811015156104fd57fe5b9060005260206000200160009054906101000a900473ffffffffffffffffffffffffffffffffffffffff1673ffffffffffffffffffffffffffffffffffffffff166108fc849081150290604051600060405180830381858888f1935050505015801561056d573d6000803e3d6000fd5b507f93911898c1f20941829036f3124b8682039199abe89beea9d47df2f66c56a940600160076000600554815260200190815260200160002085604051808415151515815260200180602001838152602001828103825284818154815260200191508054801561063257602002820191906000526020600020905b8160009054906101000a900473ffffffffffffffffffffffffffffffffffffffff1673ffffffffffffffffffffffffffffffffffffffff16815260200190600101908083116105e8575b505094505050505060405180910390a181806001019250506104bb565b600190505b600a8111151561068a5760076000828152602001908152602001600020600061067d91906106f6565b8080600101915050610654565b600060028190555060006003819055505b505050565b60055481565b60015481565b60045481565b6006818154811015156106c157fe5b906000526020600020016000915054906101000a900473ffffffffffffffffffffffffffffffffffffffff1681565b60025481565b50805460008255906000526020600020908101906107149190610717565b50565b61073991905b8082111561073557600081600090555060010161071d565b5090565b905600a165627a7a723058207ca50c0a79177c99f4f646dcc84cceef32d1277200fe6afd542b1a980870be380029",
  "source": "pragma solidity ^0.4.23;\n\n/// @title Contract to bet Ether for a number and win randomly when the number of bets is met.\n/// @author Lê Huân (HuanLV)\ncontract HuanCasino {\n  address owner;\n\n  // The minimum bet a user has to make to participate in the game\n  uint public minimumBet = 100 finney; // Equal to 0.1 ether\n\n  // The total amount of Ether bet for this current game\n  uint public totalBet;\n\n  // The total number of bets the users have made\n  uint public numberOfBets;\n\n  // The maximum amount of bets can be made for each game\n  uint public maxAmountOfBets = 10;\n\n  // The max amount of bets that cannot be exceeded to avoid excessive gas consumption\n  // when distributing the prizes and restarting the game\n  uint public constant LIMIT_AMOUNT_BETS = 10;\n\n  // The number that won the last game\n  uint public numberWinner;\n\n  // Array of players\n  address[] public players;\n\n  // Each number has an array of players. Associate each number with a bunch of players\n  mapping(uint => address[]) numberBetPlayers;\n\n  // The number that each player has bet for\n  mapping(address => uint) playerBetsNumber;\n\n  // Modifier to only allow the execution of functions when the bets are completed\n  modifier onEndGame() {\n    if(numberOfBets >= maxAmountOfBets) _;\n  }\n  \n  // Watch event when user win the game\n  event Won(bool _status, address[] _address, uint _amount);\n\n  /// @notice Constructor that's used to configure the minimum bet per game and the max amount of bets\n  /// @param _minimumBet The minimum bet that each user has to make in order to participate in the game\n  /// @param _maxAmountOfBets The max amount of bets that are required for each game\n  constructor(uint _minimumBet, uint _maxAmountOfBets) public payable {\n    owner = msg.sender;\n\n    if(_minimumBet > 0) minimumBet = _minimumBet;\n    if(_maxAmountOfBets > 0 && _maxAmountOfBets <= LIMIT_AMOUNT_BETS)\n      maxAmountOfBets = _maxAmountOfBets;\n  }\n\n  /// @notice Check if a player exists in the current game\n  /// @param player The address of the player to check\n  /// @return bool Returns true is it exists or false if it doesn't\n  function checkPlayerExists(address player) public view returns(bool) {\n    if(playerBetsNumber[player] > 0)\n      return true;\n    else\n      return false;\n  }\n\n  /// @notice To bet for a number by sending Ether\n  /// @param numberToBet The number that the player wants to bet for. Must be between 1 and 10 both inclusive\n  function bet(uint numberToBet) public payable {\n\n    // Check that the max amount of bets hasn't been met yet\n    assert(numberOfBets < maxAmountOfBets);\n\n    // Check that the player doesn't exists\n    // assert(checkPlayerExists(msg.sender) == false);\n\n    // Check that the number to bet is within the range\n    assert(numberToBet >= 1 && numberToBet <= 10);\n\n    // Check that the amount paid is bigger or equal the minimum bet\n    assert(msg.value >= minimumBet);\n\n    // Set the number bet for that player\n    playerBetsNumber[msg.sender] = numberToBet;\n\n    // The player msg.sender has bet for that number\n    numberBetPlayers[numberToBet].push(msg.sender);\n\n    numberOfBets += 1;\n    totalBet += msg.value;\n\n    if(numberOfBets >= maxAmountOfBets) generateNumberWinner();\n  }\n\n  /// @notice Generates a random number between 1 and 10 both inclusive.\n  /// Can only be executed when the game ends.\n  function generateNumberWinner() public {\n    numberWinner = block.number % 10 + 1;\n    \n    distributePrizes();\n  }\n\n  /// @notice Sends the corresponding Ether to each winner then deletes all the\n  /// players for the next game and resets the `totalBet` and `numberOfBets`\n  function distributePrizes() public onEndGame {\n    uint winnerEtherAmount = totalBet / numberBetPlayers[numberWinner].length; // How much each winner gets\n\n    // Loop through all the winners to send the corresponding prize for each one\n    for(uint i = 0; i < numberBetPlayers[numberWinner].length; i++){\n      numberBetPlayers[numberWinner][i].transfer(winnerEtherAmount);\n      emit Won(true, numberBetPlayers[numberWinner], winnerEtherAmount);\n    }\n\n    // Delete all the players for each number\n    for(uint j = 1; j <= 10; j++){\n      delete numberBetPlayers[j];\n    }\n\n    totalBet = 0;\n    numberOfBets = 0;\n  }\n\n  function() public payable {}\n}\n",
  "sourcePath": "/Users/levanhuan/lab/ethereum/huan-casino/contracts/HuanCasino.sol",
  "compiler": {
    "name": "solc",
    "version": "0.4.23+commit.124ca40d.Emscripten.clang"
  },
  "schemaVersion": "2.0.0",
  "updatedAt": "2018-10-12T05:29:30.367Z"
}