{
  "contractName": "SimpleCasino",
  "abi": [
    {
      "inputs": [
        {
          "name": "_houseEdge",
          "type": "uint256"
        }
      ],
      "payable": true,
      "stateMutability": "payable",
      "type": "constructor"
    },
    {
      "anonymous": false,
      "inputs": [
        {
          "indexed": false,
          "name": "_status",
          "type": "bool"
        },
        {
          "indexed": false,
          "name": "_amount",
          "type": "uint256"
        }
      ],
      "name": "Won",
      "type": "event"
    },
    {
      "constant": false,
      "inputs": [
        {
          "name": "_number",
          "type": "uint256"
        }
      ],
      "name": "bet",
      "outputs": [],
      "payable": true,
      "stateMutability": "payable",
      "type": "function"
    }
  ],
  "bytecode": "0x6080604052604051602080610210833981018060405281019080805190602001909291905050506064811115151561003657600080fd5b80600081905550506101c38061004d6000396000f300608060405260043610610041576000357c0100000000000000000000000000000000000000000000000000000000900463ffffffff1680637365870b14610046575b600080fd5b61006460048036038101908080359060200190929190505050610066565b005b60008060008311801561007a5750600a8311155b151561008557600080fd5b60003411151561009457600080fd5b6001600a438115156100a257fe5b060191508183141561014d57600a60005460640334028115156100c157fe5b0490503373ffffffffffffffffffffffffffffffffffffffff166108fc829081150290604051600060405180830381858888f19350505050151561010457600080fd5b7f2fda3525453650e1c58417dd4764ce9fc5c5f0f77f345a43758186d3d01909d160018260405180831515151581526020018281526020019250505060405180910390a1610192565b7f2fda3525453650e1c58417dd4764ce9fc5c5f0f77f345a43758186d3d01909d160008060405180831515151581526020018281526020019250505060405180910390a15b5050505600a165627a7a723058206f1e366495e8436d1f782df639e5653f141a52e25cfbed61ddfa544ef1f7f3950029",
  "source": "pragma solidity ^0.4.23;\n\ncontract SimpleCasino {\n  uint houseEdge;\n\n  event Won(bool _status, uint _amount);\n\n  constructor(uint _houseEdge) payable public {\n    require(_houseEdge <= 100);\n    houseEdge = _houseEdge;\n  }\n\n  function bet(uint _number) payable public {\n    require(_number > 0 && _number <= 10);\n    require(msg.value > 0);\n    uint winningNumber = block.number % 10 + 1;\n    if (_number == winningNumber) {\n      uint amountWon = msg.value * (100 - houseEdge)/10;\n      if(!msg.sender.send(amountWon)) revert();\n      emit Won(true, amountWon);\n    } else {\n      emit Won(false, 0);\n    }\n  }\n}\n",
  "sourcePath": "/Users/levanhuan/lab/ethereum/huan-casino/contracts/SimpleCasino.sol",
  "compiler": {
    "name": "solc",
    "version": "0.4.23+commit.124ca40d.Emscripten.clang"
  },
  "schemaVersion": "2.0.0",
  "updatedAt": "2018-10-12T02:56:40.124Z"
}