{
  "contractName": "HuanCasino",
  "abi": [
    {
      "constant": true,
      "inputs": [],
      "name": "numberOfBets",
      "outputs": [
        {
          "name": "",
          "type": "uint256"
        }
      ],
      "payable": false,
      "stateMutability": "view",
      "type": "function"
    },
    {
      "constant": true,
      "inputs": [
        {
          "name": "",
          "type": "address"
        }
      ],
      "name": "playerInfo",
      "outputs": [
        {
          "name": "amountBet",
          "type": "uint256"
        },
        {
          "name": "numberSelected",
          "type": "uint256"
        }
      ],
      "payable": false,
      "stateMutability": "view",
      "type": "function"
    },
    {
      "constant": true,
      "inputs": [],
      "name": "owner",
      "outputs": [
        {
          "name": "",
          "type": "address"
        }
      ],
      "payable": false,
      "stateMutability": "view",
      "type": "function"
    },
    {
      "constant": true,
      "inputs": [],
      "name": "numberWinner",
      "outputs": [
        {
          "name": "",
          "type": "uint256"
        }
      ],
      "payable": false,
      "stateMutability": "view",
      "type": "function"
    },
    {
      "constant": true,
      "inputs": [],
      "name": "minimumBet",
      "outputs": [
        {
          "name": "",
          "type": "uint256"
        }
      ],
      "payable": false,
      "stateMutability": "view",
      "type": "function"
    },
    {
      "constant": true,
      "inputs": [],
      "name": "maximumBetsNr",
      "outputs": [
        {
          "name": "",
          "type": "uint256"
        }
      ],
      "payable": false,
      "stateMutability": "view",
      "type": "function"
    },
    {
      "constant": true,
      "inputs": [
        {
          "name": "",
          "type": "uint256"
        }
      ],
      "name": "players",
      "outputs": [
        {
          "name": "",
          "type": "address"
        }
      ],
      "payable": false,
      "stateMutability": "view",
      "type": "function"
    },
    {
      "constant": true,
      "inputs": [],
      "name": "totalBet",
      "outputs": [
        {
          "name": "",
          "type": "uint256"
        }
      ],
      "payable": false,
      "stateMutability": "view",
      "type": "function"
    },
    {
      "inputs": [
        {
          "name": "_minimumBet",
          "type": "uint256"
        }
      ],
      "payable": true,
      "stateMutability": "payable",
      "type": "constructor"
    },
    {
      "payable": true,
      "stateMutability": "payable",
      "type": "fallback"
    },
    {
      "anonymous": false,
      "inputs": [
        {
          "indexed": false,
          "name": "_status",
          "type": "bool"
        },
        {
          "indexed": false,
          "name": "_address",
          "type": "address"
        },
        {
          "indexed": false,
          "name": "_amount",
          "type": "uint256"
        }
      ],
      "name": "Won",
      "type": "event"
    },
    {
      "constant": false,
      "inputs": [],
      "name": "kill",
      "outputs": [],
      "payable": false,
      "stateMutability": "nonpayable",
      "type": "function"
    },
    {
      "constant": true,
      "inputs": [
        {
          "name": "player",
          "type": "address"
        }
      ],
      "name": "checkPlayerExists",
      "outputs": [
        {
          "name": "",
          "type": "bool"
        }
      ],
      "payable": false,
      "stateMutability": "view",
      "type": "function"
    },
    {
      "constant": false,
      "inputs": [
        {
          "name": "numberSelected",
          "type": "uint256"
        }
      ],
      "name": "bet",
      "outputs": [],
      "payable": true,
      "stateMutability": "payable",
      "type": "function"
    },
    {
      "constant": false,
      "inputs": [],
      "name": "generateNumberWinner",
      "outputs": [],
      "payable": false,
      "stateMutability": "nonpayable",
      "type": "function"
    },
    {
      "constant": false,
      "inputs": [
        {
          "name": "numberWin",
          "type": "uint256"
        }
      ],
      "name": "distributePrizes",
      "outputs": [],
      "payable": false,
      "stateMutability": "nonpayable",
      "type": "function"
    },
    {
      "constant": false,
      "inputs": [],
      "name": "resetData",
      "outputs": [],
      "payable": false,
      "stateMutability": "nonpayable",
      "type": "function"
    }
  ],
  "bytecode": "0x608060405260026004556040516020806107d6833981016040525160008054600160a060020a03191633600160a060020a031617905580156100415760018190555b50610785806100516000396000f3006080604052600436106100cf5763ffffffff7c01000000000000000000000000000000000000000000000000000000006000350416630a50e36181146100d15780632ca8c6d3146100e65780634081d9161461010d57806341c0e1b514610142578063478c4e0e146101575780634b1146911461016c5780636ca3fc3b146101a65780637365870b146101be5780638da5cb5b146101c95780639a6a68e9146101fa578063c38a8afd1461020f578063dd4f28ff14610224578063f71d96cb14610239578063fe5e185314610251575b005b3480156100dd57600080fd5b506100cf610266565b3480156100f257600080fd5b506100fb61027e565b60408051918252519081900360200190f35b34801561011957600080fd5b5061012e600160a060020a0360043516610284565b604080519115158252519081900360200190f35b34801561014e57600080fd5b506100cf6102e2565b34801561016357600080fd5b506100cf610309565b34801561017857600080fd5b5061018d600160a060020a0360043516610323565b6040805192835260208301919091528051918290030190f35b3480156101b257600080fd5b506100cf60043561033c565b6100cf6004356105ca565b3480156101d557600080fd5b506101de6106a0565b60408051600160a060020a039092168252519081900360200190f35b34801561020657600080fd5b506100fb6106af565b34801561021b57600080fd5b506100fb6106b5565b34801561023057600080fd5b506100fb6106bb565b34801561024557600080fd5b506101de6004356106c1565b34801561025d57600080fd5b506100fb6106e9565b6001600a430601600681905561027b8161033c565b50565b60035481565b6000805b6005548110156102d75782600160a060020a03166005828154811015156102ab57fe5b600091825260209091200154600160a060020a031614156102cf57600191506102dc565b600101610288565b600091505b50919050565b60005433600160a060020a039081169116141561030757600054600160a060020a0316ff5b565b60006103166005826106ef565b5060006002819055600355565b6007602052600090815260409020805460019091015482565b610344610718565b61034c610718565b60008080808080805b60055485101561041f57600580548690811061036d57fe5b6000918252602080832090910154600160a060020a031680835260079091526040909120600101549094508a14156103ca57838988606481106103ac57fe5b600160a060020a0390921660209290920201526001909601956103f1565b838887606481106103d757fe5b600160a060020a0390921660209290920201526001909501945b600160a060020a03841660009081526007602052604081208181556001908101919091559490940193610355565b600254606490049250600091505b606482101561051b57600089836064811061044457fe5b6020020151600160a060020a0316146105105788826064811061046357fe5b6020020151600160a060020a03166108fc849081150290604051600060405180830381858888f193505050501580156104a0573d6000803e3d6000fd5b507fea7d9b91a9071528af290e91f77561555136fe4d4917c1eefb0868215ddc593860018a84606481106104d057fe5b602002015185604051808415151515815260200183600160a060020a0316600160a060020a03168152602001828152602001935050505060405180910390a15b60019091019061042d565b5060005b60648110156105b657600088826064811061053657fe5b6020020151600160a060020a0316146105ae577fea7d9b91a9071528af290e91f77561555136fe4d4917c1eefb0868215ddc5938600089836064811061057857fe5b60209081029190910151604080519315158452600160a060020a0390911691830191909152600082820152519081900360600190a15b60010161051f565b6105be610309565b50505050505050505050565b6105d333610284565b156105dd57600080fd5b600a81111580156105ef575060018110155b15156105fa57600080fd5b60015434101561060957600080fd5b600160a060020a033316600081815260076020526040812034808255600191820185905560038054830181556005805493840181559093527f036b6384b5eca791c62761152d0c79bb0604c104a5fb6f4eb0703f3154bb3db0909101805473ffffffffffffffffffffffffffffffffffffffff19169093179092556002805490920190915560045490541061027b5761027b610266565b600054600160a060020a031681565b60065481565b60015481565b60045481565b60058054829081106106cf57fe5b600091825260209091200154600160a060020a0316905081565b60025481565b81548183558181111561071357600083815260209020610713918101908301610738565b505050565b610c80604051908101604052806064906020820280388339509192915050565b61075691905b80821115610752576000815560010161073e565b5090565b905600a165627a7a723058201f3529cb470da7ab9e9ac0ce8ceaae4a3fa73abe3c13090b7c9461115df84a1c0029",
  "source": "pragma solidity ^0.4.23;\n\ncontract HuanCasino {\n  address public owner;\n  // The minimum bet a user has to make to participate in the game\n  uint256 public minimumBet;\n\n  // The total amount of Ether bet for this current game\n  uint256 public totalBet;\n\n  // The total number of bets the users have made\n  uint256 public numberOfBets;\n\n  // The max user of bets that cannot be exceeded to avoid excessive gas consumption\n  // when distributing the prizes and restarting the game\n  uint256 public maximumBetsNr = 2;\n\n  // Save player when betting number\n  address[] public players;\n\n  // The number that won the last game\n  uint public numberWinner;\n\n  // Save player info\n  struct Player {\n    uint256 amountBet;\n    uint256 numberSelected;\n  }\n\n  // The address of the player and => the user info\n  mapping(address => Player) public playerInfo;\n\n  // Event watch when player win\n  event Won(bool _status, address _address, uint _amount);\n\n  constructor(uint256 _minimumBet) public payable {\n    owner = msg.sender;\n    if (_minimumBet != 0) \n      minimumBet = _minimumBet;\n  }\n\n  // fallback\n  function() public payable {}\n\n  function kill() public {\n    if (msg.sender == owner) \n      selfdestruct(owner);\n  }\n\n  /// @notice Check if a player exists in the current game\n  /// @param player The address of the player to check\n  /// @return bool Returns true is it exists or false if it doesn't\n  function checkPlayerExists(address player) public constant returns(bool) {\n    for (uint256 i = 0; i < players.length; i++) {\n      if (players[i] == player) \n        return true;\n    }\n    return false;\n  }\n\n  /// @notice To bet for a number by sending Ether\n  /// @param numberSelected The number that the player wants to bet for. Must be between 1 and 10 both inclusive\n  function bet(uint256 numberSelected) public payable {\n    // Check that the player doesn't exists\n    require(!checkPlayerExists(msg.sender));\n    // Check that the number to bet is within the range\n    require(numberSelected <= 10 && numberSelected >= 1);\n    // Check that the amount paid is bigger or equal the minimum bet\n    require(msg.value >= minimumBet);\n\n    // Set the number bet for that player\n    playerInfo[msg.sender].amountBet = msg.value;\n    playerInfo[msg.sender].numberSelected = numberSelected;\n    numberOfBets++;\n    players.push(msg.sender);\n    totalBet += msg.value;\n    if (numberOfBets >= maximumBetsNr)\n      generateNumberWinner();\n    //We need to change this in order to be secure\n  }\n\n  /// @notice Generates a random number between 1 and 10 both inclusive.\n  /// Can only be executed when the game ends.\n  function generateNumberWinner() public {\n    uint256 numberGenerated = block.number % 10 + 1;\n    numberWinner = numberGenerated;\n    distributePrizes(numberGenerated);\n  }\n\n  /// @notice Sends the corresponding Ether to each winner then deletes all the\n  /// players for the next game and resets the `totalBet` and `numberOfBets`\n  function distributePrizes(uint256 numberWin) public {\n    address[100] memory winners;\n    address[100] memory losers;\n    uint256 countWin = 0;\n    uint256 countLose = 0;\n\n    for (uint256 i = 0; i < players.length; i++) {\n      address playerAddress = players[i];\n      if (playerInfo[playerAddress].numberSelected == numberWin) {\n        winners[countWin] = playerAddress;\n        countWin++;\n      } else {\n        losers[countLose] = playerAddress;\n        countLose++;\n      }\n      delete playerInfo[playerAddress];\n    }\n\n    uint256 winnerEtherAmount = totalBet/winners.length;\n\n    for (uint256 j = 0; j < winners.length; j++){\n      if (winners[j] != address(0)) {\n        winners[j].transfer(winnerEtherAmount);\n        emit Won(true, winners[j], winnerEtherAmount);\n      }\n    }\n\n    for (uint256 l = 0; l < losers.length; l++){\n      if (losers[l] != address(0))\n        emit Won(false, losers[l], 0);\n    }\n\n    resetData();\n  }\n\n  // Restart game\n  function resetData() public {\n    players.length = 0;\n    totalBet = 0;\n    numberOfBets = 0;\n  }\n}\n",
  "sourcePath": "/Users/levanhuan/lab/ethereum/huan-casino/contracts/HuanCasino.sol",
  "compiler": {
    "name": "solc",
    "version": "0.4.23+commit.124ca40d.Emscripten.clang"
  },
  "schemaVersion": "2.0.0",
  "updatedAt": "2018-10-15T04:09:17.914Z"
}