{
  "contractName": "HuanCasino",
  "abi": [
    {
      "constant": true,
      "inputs": [],
      "name": "numberOfBets",
      "outputs": [
        {
          "name": "",
          "type": "uint256"
        }
      ],
      "payable": false,
      "stateMutability": "view",
      "type": "function"
    },
    {
      "constant": true,
      "inputs": [
        {
          "name": "",
          "type": "address"
        }
      ],
      "name": "playerInfo",
      "outputs": [
        {
          "name": "amountBet",
          "type": "uint256"
        },
        {
          "name": "numberSelected",
          "type": "uint256"
        }
      ],
      "payable": false,
      "stateMutability": "view",
      "type": "function"
    },
    {
      "constant": true,
      "inputs": [],
      "name": "owner",
      "outputs": [
        {
          "name": "",
          "type": "address"
        }
      ],
      "payable": false,
      "stateMutability": "view",
      "type": "function"
    },
    {
      "constant": true,
      "inputs": [],
      "name": "numberWinner",
      "outputs": [
        {
          "name": "",
          "type": "uint256"
        }
      ],
      "payable": false,
      "stateMutability": "view",
      "type": "function"
    },
    {
      "constant": true,
      "inputs": [],
      "name": "minimumBet",
      "outputs": [
        {
          "name": "",
          "type": "uint256"
        }
      ],
      "payable": false,
      "stateMutability": "view",
      "type": "function"
    },
    {
      "constant": true,
      "inputs": [],
      "name": "maximumBetsNr",
      "outputs": [
        {
          "name": "",
          "type": "uint256"
        }
      ],
      "payable": false,
      "stateMutability": "view",
      "type": "function"
    },
    {
      "constant": true,
      "inputs": [
        {
          "name": "",
          "type": "uint256"
        }
      ],
      "name": "players",
      "outputs": [
        {
          "name": "",
          "type": "address"
        }
      ],
      "payable": false,
      "stateMutability": "view",
      "type": "function"
    },
    {
      "constant": true,
      "inputs": [],
      "name": "totalBet",
      "outputs": [
        {
          "name": "",
          "type": "uint256"
        }
      ],
      "payable": false,
      "stateMutability": "view",
      "type": "function"
    },
    {
      "inputs": [
        {
          "name": "_minimumBet",
          "type": "uint256"
        }
      ],
      "payable": true,
      "stateMutability": "payable",
      "type": "constructor"
    },
    {
      "payable": true,
      "stateMutability": "payable",
      "type": "fallback"
    },
    {
      "constant": false,
      "inputs": [],
      "name": "kill",
      "outputs": [],
      "payable": false,
      "stateMutability": "nonpayable",
      "type": "function"
    },
    {
      "constant": true,
      "inputs": [
        {
          "name": "player",
          "type": "address"
        }
      ],
      "name": "checkPlayerExists",
      "outputs": [
        {
          "name": "",
          "type": "bool"
        }
      ],
      "payable": false,
      "stateMutability": "view",
      "type": "function"
    },
    {
      "constant": false,
      "inputs": [
        {
          "name": "numberSelected",
          "type": "uint256"
        }
      ],
      "name": "bet",
      "outputs": [],
      "payable": true,
      "stateMutability": "payable",
      "type": "function"
    },
    {
      "constant": false,
      "inputs": [],
      "name": "generateNumberWinner",
      "outputs": [],
      "payable": false,
      "stateMutability": "nonpayable",
      "type": "function"
    },
    {
      "constant": false,
      "inputs": [
        {
          "name": "numberWin",
          "type": "uint256"
        }
      ],
      "name": "distributePrizes",
      "outputs": [],
      "payable": false,
      "stateMutability": "nonpayable",
      "type": "function"
    },
    {
      "constant": false,
      "inputs": [],
      "name": "resetData",
      "outputs": [],
      "payable": false,
      "stateMutability": "nonpayable",
      "type": "function"
    }
  ],
  "bytecode": "0x60806040526002600455604051602080610ac283398101806040528101908080519060200190929190505050336000806101000a81548173ffffffffffffffffffffffffffffffffffffffff021916908373ffffffffffffffffffffffffffffffffffffffff16021790555060008114151561007d57806001819055505b50610a358061008d6000396000f3006080604052600436106100d0576000357c0100000000000000000000000000000000000000000000000000000000900463ffffffff1680630a50e361146100d25780632ca8c6d3146100e95780634081d9161461011457806341c0e1b51461016f578063478c4e0e146101865780634b1146911461019d5780636ca3fc3b146101fb5780637365870b146102285780638da5cb5b146102485780639a6a68e91461029f578063c38a8afd146102ca578063dd4f28ff146102f5578063f71d96cb14610320578063fe5e18531461038d575b005b3480156100de57600080fd5b506100e76103b8565b005b3480156100f557600080fd5b506100fe6103df565b6040518082815260200191505060405180910390f35b34801561012057600080fd5b50610155600480360381019080803573ffffffffffffffffffffffffffffffffffffffff1690602001909291905050506103e5565b604051808215151515815260200191505060405180910390f35b34801561017b57600080fd5b50610184610488565b005b34801561019257600080fd5b5061019b610519565b005b3480156101a957600080fd5b506101de600480360381019080803573ffffffffffffffffffffffffffffffffffffffff16906020019092919050505061053b565b604051808381526020018281526020019250505060405180910390f35b34801561020757600080fd5b506102266004803603810190808035906020019092919050505061055f565b005b610246600480360381019080803590602001909291905050506107a7565b005b34801561025457600080fd5b5061025d610919565b604051808273ffffffffffffffffffffffffffffffffffffffff1673ffffffffffffffffffffffffffffffffffffffff16815260200191505060405180910390f35b3480156102ab57600080fd5b506102b461093e565b6040518082815260200191505060405180910390f35b3480156102d657600080fd5b506102df610944565b6040518082815260200191505060405180910390f35b34801561030157600080fd5b5061030a61094a565b6040518082815260200191505060405180910390f35b34801561032c57600080fd5b5061034b60048036038101908080359060200190929190505050610950565b604051808273ffffffffffffffffffffffffffffffffffffffff1673ffffffffffffffffffffffffffffffffffffffff16815260200191505060405180910390f35b34801561039957600080fd5b506103a261098e565b6040518082815260200191505060405180910390f35b60006001600a438115156103c857fe5b06019050806006819055506103dc8161055f565b50565b60035481565b600080600090505b60058054905081101561047d578273ffffffffffffffffffffffffffffffffffffffff1660058281548110151561042057fe5b9060005260206000200160009054906101000a900473ffffffffffffffffffffffffffffffffffffffff1673ffffffffffffffffffffffffffffffffffffffff1614156104705760019150610482565b80806001019150506103ed565b600091505b50919050565b6000809054906101000a900473ffffffffffffffffffffffffffffffffffffffff1673ffffffffffffffffffffffffffffffffffffffff163373ffffffffffffffffffffffffffffffffffffffff161415610517576000809054906101000a900473ffffffffffffffffffffffffffffffffffffffff1673ffffffffffffffffffffffffffffffffffffffff16ff5b565b60006005816105289190610994565b5060006002819055506000600381905550565b60076020528060005260406000206000915090508060000154908060010154905082565b6105676109c0565b6000806000806000809450600093505b6005805490508410156106b85760058481548110151561059357fe5b9060005260206000200160009054906101000a900473ffffffffffffffffffffffffffffffffffffffff16925086600760008573ffffffffffffffffffffffffffffffffffffffff1673ffffffffffffffffffffffffffffffffffffffff1681526020019081526020016000206001015414156106595782868660648110151561061957fe5b602002019073ffffffffffffffffffffffffffffffffffffffff16908173ffffffffffffffffffffffffffffffffffffffff168152505084806001019550505b600760008473ffffffffffffffffffffffffffffffffffffffff1673ffffffffffffffffffffffffffffffffffffffff168152602001908152602001600020600080820160009055600182016000905550508380600101945050610577565b60006005816106c79190610994565b5060646002548115156106d657fe5b049150600090505b606481101561079657600073ffffffffffffffffffffffffffffffffffffffff16868260648110151561070d57fe5b602002015173ffffffffffffffffffffffffffffffffffffffff1614151561078957858160648110151561073d57fe5b602002015173ffffffffffffffffffffffffffffffffffffffff166108fc839081150290604051600060405180830381858888f19350505050158015610787573d6000803e3d6000fd5b505b80806001019150506106de565b61079e610519565b50505050505050565b6107b0336103e5565b1515156107bc57600080fd5b600a81111580156107ce575060018110155b15156107d957600080fd5b60015434101515156107ea57600080fd5b34600760003373ffffffffffffffffffffffffffffffffffffffff1673ffffffffffffffffffffffffffffffffffffffff1681526020019081526020016000206000018190555080600760003373ffffffffffffffffffffffffffffffffffffffff1673ffffffffffffffffffffffffffffffffffffffff1681526020019081526020016000206001018190555060036000815480929190600101919050555060053390806001815401808255809150509060018203906000526020600020016000909192909190916101000a81548173ffffffffffffffffffffffffffffffffffffffff021916908373ffffffffffffffffffffffffffffffffffffffff1602179055505034600260008282540192505081905550600454600354101515610916576109156103b8565b5b50565b6000809054906101000a900473ffffffffffffffffffffffffffffffffffffffff1681565b60065481565b60015481565b60045481565b60058181548110151561095f57fe5b906000526020600020016000915054906101000a900473ffffffffffffffffffffffffffffffffffffffff1681565b60025481565b8154818355818111156109bb578183600052602060002091820191016109ba91906109e4565b5b505050565b610c8060405190810160405280606490602082028038833980820191505090505090565b610a0691905b80821115610a025760008160009055506001016109ea565b5090565b905600a165627a7a72305820e631dc500ab244c75d34c1f6e88aa169e0611b6589b5f79f26192b3cd8b83d970029",
  "source": "pragma solidity ^0.4.23;\n\ncontract HuanCasino {\n  address public owner;\n  // The minimum bet a user has to make to participate in the game\n  uint256 public minimumBet;\n\n  // The total amount of Ether bet for this current game\n  uint256 public totalBet;\n\n  // The total number of bets the users have made\n  uint256 public numberOfBets;\n\n  // The max user of bets that cannot be exceeded to avoid excessive gas consumption\n  // when distributing the prizes and restarting the game\n  uint256 public maximumBetsNr = 2;\n  address[] public players;\n\n  // The number that won the last game\n  uint public numberWinner;\n\n  // Save player info\n  struct Player {\n    uint256 amountBet;\n    uint256 numberSelected;\n  }\n\n  // The address of the player and => the user info\n  mapping(address => Player) public playerInfo;\n\n  constructor(uint256 _minimumBet) public payable {\n    owner = msg.sender;\n    if (_minimumBet != 0) \n      minimumBet = _minimumBet;\n  }\n\n  function() public payable {}\n\n  function kill() public {\n    if (msg.sender == owner) \n      selfdestruct(owner);\n  }\n\n  /// @notice Check if a player exists in the current game\n  /// @param player The address of the player to check\n  /// @return bool Returns true is it exists or false if it doesn't\n  function checkPlayerExists(address player) public constant returns(bool) {\n    for (uint256 i = 0; i < players.length; i++) {\n      if (players[i] == player) \n        return true;\n    }\n    return false;\n  }\n\n  /// @notice To bet for a number by sending Ether\n  /// @param numberSelected The number that the player wants to bet for. Must be between 1 and 10 both inclusive\n  function bet(uint256 numberSelected) public payable {\n    // Check that the player doesn't exists\n    require(!checkPlayerExists(msg.sender));\n    // Check that the number to bet is within the range\n    require(numberSelected <= 10 && numberSelected >= 1);\n    // Check that the amount paid is bigger or equal the minimum bet\n    require(msg.value >= minimumBet);\n\n    // Set the number bet for that player\n    playerInfo[msg.sender].amountBet = msg.value;\n    playerInfo[msg.sender].numberSelected = numberSelected;\n    numberOfBets++;\n    players.push(msg.sender);\n    totalBet += msg.value;\n    if (numberOfBets >= maximumBetsNr) \n      generateNumberWinner();\n    //We need to change this in order to be secure\n  }\n\n  /// @notice Generates a random number between 1 and 10 both inclusive.\n  /// Can only be executed when the game ends.\n  function generateNumberWinner() public {\n    uint256 numberGenerated = block.number % 10 + 1;\n    numberWinner = numberGenerated;\n    distributePrizes(numberGenerated);\n  }\n\n  /// @notice Sends the corresponding Ether to each winner then deletes all the\n  /// players for the next game and resets the `totalBet` and `numberOfBets`\n  function distributePrizes(uint256 numberWin) public {\n    address[100] memory winners;\n    uint256 count = 0;\n    for (uint256 i = 0; i < players.length; i++) {\n      address playerAddress = players[i];\n      if (playerInfo[playerAddress].numberSelected == numberWin) {\n        winners[count] = playerAddress;\n        count++;\n      }\n      delete playerInfo[playerAddress];\n    }\n\n    players.length = 0;\n    uint256 winnerEtherAmount = totalBet/winners.length;\n\n    for (uint256 j = 0; j < winners.length; j++){\n      if (winners[j] != address(0)) \n        winners[j].transfer(winnerEtherAmount);\n    }\n\n    resetData();\n  }\n\n  function resetData() public {\n    players.length = 0;\n    totalBet = 0;\n    numberOfBets = 0;\n  }\n}\n",
  "sourcePath": "/Users/levanhuan/lab/ethereum/huan-casino/contracts/HuanCasino.sol",
  "compiler": {
    "name": "solc",
    "version": "0.4.23+commit.124ca40d.Emscripten.clang"
  },
  "schemaVersion": "2.0.0",
  "updatedAt": "2018-10-12T06:10:57.733Z"
}