{
  "contractName": "HuanCasino",
  "abi": [
    {
      "constant": true,
      "inputs": [],
      "name": "numberOfBets",
      "outputs": [
        {
          "name": "",
          "type": "uint256"
        }
      ],
      "payable": false,
      "stateMutability": "view",
      "type": "function"
    },
    {
      "constant": true,
      "inputs": [
        {
          "name": "",
          "type": "address"
        }
      ],
      "name": "playerInfo",
      "outputs": [
        {
          "name": "amountBet",
          "type": "uint256"
        },
        {
          "name": "numberSelected",
          "type": "uint256"
        }
      ],
      "payable": false,
      "stateMutability": "view",
      "type": "function"
    },
    {
      "constant": true,
      "inputs": [],
      "name": "owner",
      "outputs": [
        {
          "name": "",
          "type": "address"
        }
      ],
      "payable": false,
      "stateMutability": "view",
      "type": "function"
    },
    {
      "constant": true,
      "inputs": [],
      "name": "numberWinner",
      "outputs": [
        {
          "name": "",
          "type": "uint256"
        }
      ],
      "payable": false,
      "stateMutability": "view",
      "type": "function"
    },
    {
      "constant": true,
      "inputs": [],
      "name": "minimumBet",
      "outputs": [
        {
          "name": "",
          "type": "uint256"
        }
      ],
      "payable": false,
      "stateMutability": "view",
      "type": "function"
    },
    {
      "constant": true,
      "inputs": [],
      "name": "maximumBetsNr",
      "outputs": [
        {
          "name": "",
          "type": "uint256"
        }
      ],
      "payable": false,
      "stateMutability": "view",
      "type": "function"
    },
    {
      "constant": true,
      "inputs": [
        {
          "name": "",
          "type": "uint256"
        }
      ],
      "name": "players",
      "outputs": [
        {
          "name": "",
          "type": "address"
        }
      ],
      "payable": false,
      "stateMutability": "view",
      "type": "function"
    },
    {
      "constant": true,
      "inputs": [],
      "name": "totalBet",
      "outputs": [
        {
          "name": "",
          "type": "uint256"
        }
      ],
      "payable": false,
      "stateMutability": "view",
      "type": "function"
    },
    {
      "inputs": [
        {
          "name": "_minimumBet",
          "type": "uint256"
        }
      ],
      "payable": true,
      "stateMutability": "payable",
      "type": "constructor"
    },
    {
      "payable": true,
      "stateMutability": "payable",
      "type": "fallback"
    },
    {
      "anonymous": false,
      "inputs": [
        {
          "indexed": false,
          "name": "_status",
          "type": "bool"
        },
        {
          "indexed": false,
          "name": "_address",
          "type": "address"
        },
        {
          "indexed": false,
          "name": "_amount",
          "type": "uint256"
        }
      ],
      "name": "Won",
      "type": "event"
    },
    {
      "constant": false,
      "inputs": [],
      "name": "kill",
      "outputs": [],
      "payable": false,
      "stateMutability": "nonpayable",
      "type": "function"
    },
    {
      "constant": false,
      "inputs": [],
      "name": "withdraw",
      "outputs": [
        {
          "name": "",
          "type": "bool"
        }
      ],
      "payable": false,
      "stateMutability": "nonpayable",
      "type": "function"
    },
    {
      "constant": true,
      "inputs": [
        {
          "name": "player",
          "type": "address"
        }
      ],
      "name": "checkPlayerExists",
      "outputs": [
        {
          "name": "",
          "type": "bool"
        }
      ],
      "payable": false,
      "stateMutability": "view",
      "type": "function"
    },
    {
      "constant": false,
      "inputs": [
        {
          "name": "numberSelected",
          "type": "uint256"
        }
      ],
      "name": "bet",
      "outputs": [],
      "payable": true,
      "stateMutability": "payable",
      "type": "function"
    },
    {
      "constant": false,
      "inputs": [],
      "name": "generateNumberWinner",
      "outputs": [],
      "payable": false,
      "stateMutability": "nonpayable",
      "type": "function"
    },
    {
      "constant": false,
      "inputs": [
        {
          "name": "numberWin",
          "type": "uint256"
        }
      ],
      "name": "distributePrizes",
      "outputs": [],
      "payable": false,
      "stateMutability": "nonpayable",
      "type": "function"
    },
    {
      "constant": false,
      "inputs": [],
      "name": "resetData",
      "outputs": [],
      "payable": false,
      "stateMutability": "nonpayable",
      "type": "function"
    }
  ],
  "bytecode": "0x60806040526002600455604051602080610863833981016040525160008054600160a060020a03191633600160a060020a031617905580156100415760018190555b50610812806100516000396000f3006080604052600436106100da5763ffffffff7c01000000000000000000000000000000000000000000000000000000006000350416630a50e36181146100dc5780632ca8c6d3146100f15780633ccfd60b146101185780634081d9161461014157806341c0e1b514610162578063478c4e0e146101775780634b1146911461018c5780636ca3fc3b146101c65780637365870b146101de5780638da5cb5b146101e95780639a6a68e91461021a578063c38a8afd1461022f578063dd4f28ff14610244578063f71d96cb14610259578063fe5e185314610271575b005b3480156100e857600080fd5b506100da610286565b3480156100fd57600080fd5b5061010661029e565b60408051918252519081900360200190f35b34801561012457600080fd5b5061012d6102a4565b604080519115158252519081900360200190f35b34801561014d57600080fd5b5061012d600160a060020a0360043516610308565b34801561016e57600080fd5b506100da610366565b34801561018357600080fd5b506100da61038d565b34801561019857600080fd5b506101ad600160a060020a03600435166103a7565b6040805192835260208301919091528051918290030190f35b3480156101d257600080fd5b506100da6004356103c0565b6100da60043561065a565b3480156101f557600080fd5b506101fe610730565b60408051600160a060020a039092168252519081900360200190f35b34801561022657600080fd5b5061010661073f565b34801561023b57600080fd5b50610106610745565b34801561025057600080fd5b5061010661074b565b34801561026557600080fd5b506101fe600435610751565b34801561027d57600080fd5b50610106610779565b6001600a430601600681905561029b816103c0565b50565b60035481565b6000805433600160a060020a039081169116146102c057600080fd5b60008054604051600160a060020a0391821692309092163180156108fc0292909190818181858888f193505050501580156102ff573d6000803e3d6000fd5b50600190505b90565b6000805b60055481101561035b5782600160a060020a031660058281548110151561032f57fe5b600091825260209091200154600160a060020a031614156103535760019150610360565b60010161030c565b600091505b50919050565b60005433600160a060020a039081169116141561038b57600054600160a060020a0316ff5b565b600061039a60058261077f565b5060006002819055600355565b6007602052600090815260409020805460019091015482565b6103c86107a8565b6103d06107a8565b60008080808080805b6005548510156104a35760058054869081106103f157fe5b6000918252602080832090910154600160a060020a031680835260079091526040909120600101549094508a141561044e578389886064811061043057fe5b600160a060020a039092166020929092020152600190960195610475565b8388876064811061045b57fe5b600160a060020a0390921660209290920201526001909501945b600160a060020a038416600090815260076020526040812081815560019081019190915594909401936103d9565b86156105ab57866002548115156104b657fe5b049250600091505b868210156105ab5760008983606481106104d457fe5b6020020151600160a060020a0316146105a0578882606481106104f357fe5b6020020151600160a060020a03166108fc849081150290604051600060405180830381858888f19350505050158015610530573d6000803e3d6000fd5b507fea7d9b91a9071528af290e91f77561555136fe4d4917c1eefb0868215ddc593860018a846064811061056057fe5b602002015185604051808415151515815260200183600160a060020a0316600160a060020a03168152602001828152602001935050505060405180910390a15b6001909101906104be565b5060005b60648110156106465760008882606481106105c657fe5b6020020151600160a060020a03161461063e577fea7d9b91a9071528af290e91f77561555136fe4d4917c1eefb0868215ddc5938600089836064811061060857fe5b60209081029190910151604080519315158452600160a060020a0390911691830191909152600082820152519081900360600190a15b6001016105af565b61064e61038d565b50505050505050505050565b61066333610308565b1561066d57600080fd5b600a811115801561067f575060018110155b151561068a57600080fd5b60015434101561069957600080fd5b600160a060020a033316600081815260076020526040812034808255600191820185905560038054830181556005805493840181559093527f036b6384b5eca791c62761152d0c79bb0604c104a5fb6f4eb0703f3154bb3db0909101805473ffffffffffffffffffffffffffffffffffffffff19169093179092556002805490920190915560045490541061029b5761029b610286565b600054600160a060020a031681565b60065481565b60015481565b60045481565b600580548290811061075f57fe5b600091825260209091200154600160a060020a0316905081565b60025481565b8154818355818111156107a3576000838152602090206107a39181019083016107c8565b505050565b610c80604051908101604052806064906020820280388339509192915050565b61030591905b808211156107e257600081556001016107ce565b50905600a165627a7a72305820425837e8e95548222bad93556038c6e6bdc7131cc5d51587944312cea658c02c0029",
  "source": "pragma solidity ^0.4.23;\n\ncontract HuanCasino {\n  address public owner;\n  // The minimum bet a user has to make to participate in the game\n  uint256 public minimumBet;\n\n  // The total amount of Ether bet for this current game\n  uint256 public totalBet;\n\n  // The total number of bets the users have made\n  uint256 public numberOfBets;\n\n  // The max user of bets that cannot be exceeded to avoid excessive gas consumption\n  // when distributing the prizes and restarting the game\n  uint256 public maximumBetsNr = 2;\n\n  // Save player when betting number\n  address[] public players;\n\n  // The number that won the last game\n  uint public numberWinner;\n\n  // Save player info\n  struct Player {\n    uint256 amountBet;\n    uint256 numberSelected;\n  }\n\n  // The address of the player and => the user info\n  mapping(address => Player) public playerInfo;\n\n  // Event watch when player win\n  event Won(bool _status, address _address, uint _amount);\n\n  modifier onlyOwner() {\n    require(msg.sender == owner);\n    _;\n  }\n\n  constructor(uint256 _minimumBet) public payable {\n    owner = msg.sender;\n    if (_minimumBet != 0) \n      minimumBet = _minimumBet;\n  }\n\n  // fallback\n  function() public payable {}\n\n  function kill() public {\n    if (msg.sender == owner) \n      selfdestruct(owner);\n  }\n\n  /// @notice The Bookie can withdraw money from the table\n  /// @return bool Returns true if withdraw success\n  function withdraw() public onlyOwner returns(bool) {\n    owner.transfer(address(this).balance);\n    return true;\n  }\n\n  /// @notice Check if a player exists in the current game\n  /// @param player The address of the player to check\n  /// @return bool Returns true is it exists or false if it doesn't\n  function checkPlayerExists(address player) public constant returns(bool) {\n    for (uint256 i = 0; i < players.length; i++) {\n      if (players[i] == player) \n        return true;\n    }\n    return false;\n  }\n\n  /// @notice To bet for a number by sending Ether\n  /// @param numberSelected The number that the player wants to bet for. Must be between 1 and 10 both inclusive\n  function bet(uint256 numberSelected) public payable {\n    // Check that the player doesn't exists\n    require(!checkPlayerExists(msg.sender));\n    // Check that the number to bet is within the range\n    require(numberSelected <= 10 && numberSelected >= 1);\n    // Check that the amount paid is bigger or equal the minimum bet\n    require(msg.value >= minimumBet);\n\n    // Set the number bet for that player\n    playerInfo[msg.sender].amountBet = msg.value;\n    playerInfo[msg.sender].numberSelected = numberSelected;\n    numberOfBets++;\n    players.push(msg.sender);\n    totalBet += msg.value;\n    if (numberOfBets >= maximumBetsNr)\n      generateNumberWinner();\n    //We need to change this in order to be secure\n  }\n\n  /// @notice Generates a random number between 1 and 10 both inclusive.\n  /// Can only be executed when the game ends.\n  function generateNumberWinner() public {\n    uint256 numberGenerated = block.number % 10 + 1;\n    numberWinner = numberGenerated;\n    distributePrizes(numberGenerated);\n  }\n\n  /// @notice Sends the corresponding Ether to each winner then deletes all the\n  /// players for the next game and resets the `totalBet` and `numberOfBets`\n  function distributePrizes(uint256 numberWin) public {\n    address[100] memory winners;\n    address[100] memory losers;\n    uint256 countWin = 0;\n    uint256 countLose = 0;\n\n    for (uint256 i = 0; i < players.length; i++) {\n      address playerAddress = players[i];\n      if (playerInfo[playerAddress].numberSelected == numberWin) {\n        winners[countWin] = playerAddress;\n        countWin++;\n      } else {\n        losers[countLose] = playerAddress;\n        countLose++;\n      }\n      delete playerInfo[playerAddress];\n    }\n\n    if (countWin != 0) {\n      uint256 winnerEtherAmount = totalBet/countWin;\n\n      for (uint256 j = 0; j < countWin; j++){\n        if (winners[j] != address(0)) {\n          winners[j].transfer(winnerEtherAmount);\n          emit Won(true, winners[j], winnerEtherAmount);\n        }\n      }\n    }\n\n    for (uint256 l = 0; l < losers.length; l++){\n      if (losers[l] != address(0))\n        emit Won(false, losers[l], 0);\n    }\n\n    resetData();\n  }\n\n  // Restart game\n  function resetData() public {\n    players.length = 0;\n    totalBet = 0;\n    numberOfBets = 0;\n  }\n}\n",
  "sourcePath": "/Users/levanhuan/lab/ethereum/huan-casino/contracts/HuanCasino.sol",
  "compiler": {
    "name": "solc",
    "version": "0.4.23+commit.124ca40d.Emscripten.clang"
  },
  "schemaVersion": "2.0.0",
  "updatedAt": "2018-10-16T08:15:46.924Z"
}